:100000000A128A11FA2F00308A000408840A820733
:1000100000345334453443344F344E344434203464
:1000200046344C344F344F34523400344734523415
:100030004F3455344E344434203446344C344F34E9
:100040004F345234003454344834493452344434F4
:10005000203446344C344F344F3452340034463418
:100060004934523453345434203446344C344F34AD
:060070004F34523400344D
:100C98000130F0020030031CF103F102700A031D59
:100CA800592E710A031D592E5A2E4C2E0800F30096
:100CB80073185F2E632E831203130914662E831292
:100CC80003130910720888000A128A116E260A1284
:100CD8008A110800831203138914E830F0000330E6
:100CE800F1000A128A114C260A128A118312031380
:100CF8008910E830F0000330F1000A128A114C26FE
:100D08000A128A110800F5009B2E750884000A1241
:100D18008A1103200A128A11F20001300A128A117C
:100D28005B260A128A110130F4007408F507750869
:100D380084000A128A1103200A128A11003A031D3C
:100D4800A62EA72E892E0800831203138901880175
:100D580087018601850183160313890188018501AE
:100D68000F30870086008316031789018801383001
:100D7800F20000300A128A115B260A128A110E301C
:100D8800F20000300A128A115B260A128A1180309A
:100D9800F20000300A128A115B260A128A118312A5
:100DA8000313061CD82ED92EFB2E023076067704A4
:100DB800031DDF2EE02EE32E07178713F32E0330D3
:100DC80076067704031DE92EEA2EEB2EE02E04307A
:100DD80076067704031DF12EF22EF32EE02E013055
:100DE800F6000030F7000618FA2EFB2EF72E07182B
:100DF800FE2EFF2E1B2F76037704031D042F052FCD
:100E08001B2F071387138030F20000300A128A1153
:100E18005B260A128A118312031305148511051122
:100E280085100E300A128A1187260A128A11831237
:100E38000313861C202F212F442F76037704031DCC
:100E4800262F272F2A2F071387173C2F03307606C4
:100E58007704031D302F312F342F071787133C2FAA
:100E6800043076067704031D3A2F3B2F3C2F312F91
:100E78000230F6000030F7008618432F442F402F29
:100E88008718472F482F652F023076067704031DF1
:100E98004E2F4F2F652F071387138030F200003035
:100EA8000A128A115B260A128A1183120313851407
:100EB80085110511051027300A128A1187260A1292
:100EC8008A1183120313061D6A2F6B2F8D2F760349
:100ED8007704031D702F712F742F07138717852F21
:100EE800023076067704031D7A2F7B2F7C2F712F13
:100EF800043076067704031D822F832F852F07176A
:100F080087130330F6000030F70006198C2F8D2F59
:100F1800892F0719902F912FAE2F0330760677046B
:100F2800031D972F982FAE2F071387138030F200D9
:100F380000300A128A115B260A128A1183120313DF
:100F4800051585118510051001300A128A118726AA
:100F58000A128A1183120313861DB32FB42FD52FBB
:100F680076037704031DB92FBA2FBD2F07138717F0
:100F7800CD2F023076067704031DC32FC42FC52F4B
:100F8800BA2F033076067704031DCB2FCC2FCD2F35
:100F9800BA2F0430F6000030F7008619D42FD52F69
:100FA800D12F8719D82FD92FD32E0430760677045E
:100FB800031DDF2FE02FD32E071387138030F20095
:100FC80000300A128A115B260A128A11831203134F
:100FD80085150510051105101B300A128A11872680
:100FE8000A128A11D32E0A128A110028F601F70173
:080FF80083010A128A11A82EE0
:08400000FF3FFF3FFF3FFF3FC0
:04400E00E42CFF3F60
:00000001FF
